{
  "contractName": "Ballot",
  "abi": [
    {
      "inputs": [],
      "stateMutability": "nonpayable",
      "type": "constructor"
    },
    {
      "inputs": [],
      "name": "chairperson",
      "outputs": [
        {
          "internalType": "address",
          "name": "",
          "type": "address"
        }
      ],
      "stateMutability": "view",
      "type": "function",
      "constant": true
    },
    {
      "inputs": [
        {
          "internalType": "uint256",
          "name": "",
          "type": "uint256"
        }
      ],
      "name": "proposals",
      "outputs": [
        {
          "internalType": "bytes32",
          "name": "name",
          "type": "bytes32"
        },
        {
          "internalType": "uint256",
          "name": "voteCount",
          "type": "uint256"
        }
      ],
      "stateMutability": "view",
      "type": "function",
      "constant": true
    },
    {
      "inputs": [
        {
          "internalType": "address",
          "name": "",
          "type": "address"
        }
      ],
      "name": "voters",
      "outputs": [
        {
          "internalType": "uint256",
          "name": "weight",
          "type": "uint256"
        },
        {
          "internalType": "bool",
          "name": "voted",
          "type": "bool"
        },
        {
          "internalType": "address",
          "name": "delegate",
          "type": "address"
        },
        {
          "internalType": "uint256",
          "name": "vote",
          "type": "uint256"
        }
      ],
      "stateMutability": "view",
      "type": "function",
      "constant": true
    },
    {
      "inputs": [
        {
          "internalType": "bytes32",
          "name": "proposalNames",
          "type": "bytes32"
        }
      ],
      "name": "addProposal",
      "outputs": [],
      "stateMutability": "nonpayable",
      "type": "function"
    },
    {
      "inputs": [],
      "name": "get_first_proposal",
      "outputs": [
        {
          "internalType": "bytes32",
          "name": "",
          "type": "bytes32"
        }
      ],
      "stateMutability": "view",
      "type": "function",
      "constant": true
    }
  ],
  "bytecode": "0x608060405234801561001057600080fd5b50336000806101000a81548173ffffffffffffffffffffffffffffffffffffffff021916908373ffffffffffffffffffffffffffffffffffffffff16021790555060018060008060009054906101000a900473ffffffffffffffffffffffffffffffffffffffff1673ffffffffffffffffffffffffffffffffffffffff1673ffffffffffffffffffffffffffffffffffffffff168152602001908152602001600020600001819055506105b4806100c86000396000f3fe608060405234801561001057600080fd5b50600436106100575760003560e01c8063013cf08b1461005c57806306efe3b01461008d5780632e4176cf146100a95780635de90c18146100c7578063a3ec138d146100e5575b600080fd5b6100766004803603810190610071919061036d565b610118565b604051610084929190610448565b60405180910390f35b6100a760048036038101906100a29190610344565b61014c565b005b6100b16101c0565b6040516100be9190610412565b60405180910390f35b6100cf6101e4565b6040516100dc919061042d565b60405180910390f35b6100ff60048036038101906100fa919061031b565b61027f565b60405161010f9493929190610491565b60405180910390f35b6002818154811061012857600080fd5b90600052602060002090600202016000915090508060000154908060010154905082565b600060149054906101000a900460ff161561016657600080fd5b60026040518060400160405280838152602001600081525090806001815401808255809150506001900390600052602060002090600202016000909190919091506000820151816000015560208201518160010155505050565b60008054906101000a900473ffffffffffffffffffffffffffffffffffffffff1681565b6000806002805490501161022d576040517f08c379a000000000000000000000000000000000000000000000000000000000815260040161022490610471565b60405180910390fd5b6002600081548110610268577f4e487b7100000000000000000000000000000000000000000000000000000000600052603260045260246000fd5b906000526020600020906002020160000154905090565b60016020528060005260406000206000915090508060000154908060010160009054906101000a900460ff16908060010160019054906101000a900473ffffffffffffffffffffffffffffffffffffffff16908060020154905084565b6000813590506102eb81610539565b92915050565b60008135905061030081610550565b92915050565b60008135905061031581610567565b92915050565b60006020828403121561032d57600080fd5b600061033b848285016102dc565b91505092915050565b60006020828403121561035657600080fd5b6000610364848285016102f1565b91505092915050565b60006020828403121561037f57600080fd5b600061038d84828501610306565b91505092915050565b61039f816104e7565b82525050565b6103ae816104f9565b82525050565b6103bd81610505565b82525050565b60006103d0601b836104d6565b91507f4e6f206861792070726f7075657374617320646566696e6964617300000000006000830152602082019050919050565b61040c8161052f565b82525050565b60006020820190506104276000830184610396565b92915050565b600060208201905061044260008301846103b4565b92915050565b600060408201905061045d60008301856103b4565b61046a6020830184610403565b9392505050565b6000602082019050818103600083015261048a816103c3565b9050919050565b60006080820190506104a66000830187610403565b6104b360208301866103a5565b6104c06040830185610396565b6104cd6060830184610403565b95945050505050565b600082825260208201905092915050565b60006104f28261050f565b9050919050565b60008115159050919050565b6000819050919050565b600073ffffffffffffffffffffffffffffffffffffffff82169050919050565b6000819050919050565b610542816104e7565b811461054d57600080fd5b50565b61055981610505565b811461056457600080fd5b50565b6105708161052f565b811461057b57600080fd5b5056fea26469706673582212201a25105bffece41a94f8d13baef0a1633323f7bfacf1811e62325865ad4582f664736f6c63430008000033",
  "immutableReferences": {},
  "source": "pragma solidity 0.8.0;\r\n\r\n/// @title Votacin con voto delegado\r\ncontract Ballot {\r\n\r\n  struct Voter {\r\n    uint weight;\r\n    bool voted;\r\n    address delegate;\r\n    uint vote;\r\n  }\r\n\r\n  struct Proposal {\r\n    bytes32 name;\r\n    uint voteCount;\r\n  }\r\n\r\n  address public chairperson;\r\n  bool init;\r\n\r\n  mapping(address => Voter) public voters;\r\n  Proposal[] public proposals;\r\n\r\n  constructor(){\r\n    chairperson = msg.sender;\r\n    voters[chairperson].weight = 1;\r\n  }\r\n\r\n  function addProposal(bytes32 proposalNames) public {\r\n    require(!init);\r\n    proposals.push(Proposal({name: proposalNames,voteCount: 0}));\r\n  }\r\n\r\n  function get_first_proposal() view public returns (bytes32) {\r\n    require(proposals.length > 0, 'No hay propuestas definidas');\r\n    return proposals[0].name;\r\n  }\r\n}\r\n",
  "sourcePath": "C:/Users/PC/NodeJS/myApp/contracts/myContract.sol",
  "compiler": {
    "name": "solc",
    "version": "0.8.0+commit.c7dfd78e.Emscripten.clang"
  },
  "schemaVersion": "3.3.4",
  "updatedAt": "2021-04-06T02:27:23.928Z",
  "networkType": "ethereum",
  "devdoc": {
    "kind": "dev",
    "methods": {},
    "title": "Votacin con voto delegado",
    "version": 1
  },
  "userdoc": {
    "kind": "user",
    "methods": {},
    "version": 1
  }
}